{
  "_format": "hh-sol-artifact-1",
  "contractName": "Heart2Help",
  "sourceName": "contracts/Heart2Help.sol",
  "abi": [
    {
      "inputs": [],
      "stateMutability": "nonpayable",
      "type": "constructor"
    },
    {
      "anonymous": false,
      "inputs": [
        {
          "indexed": false,
          "internalType": "uint256",
          "name": "id",
          "type": "uint256"
        },
        {
          "indexed": false,
          "internalType": "string",
          "name": "name",
          "type": "string"
        },
        {
          "indexed": false,
          "internalType": "uint256",
          "name": "goal",
          "type": "uint256"
        },
        {
          "indexed": false,
          "internalType": "uint256",
          "name": "deadline",
          "type": "uint256"
        }
      ],
      "name": "CampaignCreated",
      "type": "event"
    },
    {
      "anonymous": false,
      "inputs": [
        {
          "indexed": false,
          "internalType": "address",
          "name": "donor",
          "type": "address"
        },
        {
          "indexed": false,
          "internalType": "uint256",
          "name": "campaignId",
          "type": "uint256"
        },
        {
          "indexed": false,
          "internalType": "uint256",
          "name": "amount",
          "type": "uint256"
        }
      ],
      "name": "Donated",
      "type": "event"
    },
    {
      "anonymous": false,
      "inputs": [
        {
          "indexed": false,
          "internalType": "uint256",
          "name": "campaignId",
          "type": "uint256"
        },
        {
          "indexed": false,
          "internalType": "uint256",
          "name": "amount",
          "type": "uint256"
        }
      ],
      "name": "Withdrawn",
      "type": "event"
    },
    {
      "inputs": [],
      "name": "admin",
      "outputs": [
        {
          "internalType": "address",
          "name": "",
          "type": "address"
        }
      ],
      "stateMutability": "view",
      "type": "function"
    },
    {
      "inputs": [],
      "name": "campaignCount",
      "outputs": [
        {
          "internalType": "uint256",
          "name": "",
          "type": "uint256"
        }
      ],
      "stateMutability": "view",
      "type": "function"
    },
    {
      "inputs": [
        {
          "internalType": "uint256",
          "name": "",
          "type": "uint256"
        }
      ],
      "name": "campaigns",
      "outputs": [
        {
          "internalType": "uint256",
          "name": "id",
          "type": "uint256"
        },
        {
          "internalType": "string",
          "name": "name",
          "type": "string"
        },
        {
          "internalType": "address payable",
          "name": "receiver",
          "type": "address"
        },
        {
          "internalType": "uint256",
          "name": "goal",
          "type": "uint256"
        },
        {
          "internalType": "uint256",
          "name": "collected",
          "type": "uint256"
        },
        {
          "internalType": "bool",
          "name": "isActive",
          "type": "bool"
        },
        {
          "internalType": "uint256",
          "name": "deadline",
          "type": "uint256"
        }
      ],
      "stateMutability": "view",
      "type": "function"
    },
    {
      "inputs": [
        {
          "internalType": "string",
          "name": "_name",
          "type": "string"
        },
        {
          "internalType": "uint256",
          "name": "_goal",
          "type": "uint256"
        },
        {
          "internalType": "uint256",
          "name": "_durationInDays",
          "type": "uint256"
        }
      ],
      "name": "createCampaign",
      "outputs": [],
      "stateMutability": "nonpayable",
      "type": "function"
    },
    {
      "inputs": [
        {
          "internalType": "uint256",
          "name": "_campaignId",
          "type": "uint256"
        }
      ],
      "name": "donate",
      "outputs": [],
      "stateMutability": "payable",
      "type": "function"
    },
    {
      "inputs": [
        {
          "internalType": "address",
          "name": "",
          "type": "address"
        }
      ],
      "name": "donors",
      "outputs": [
        {
          "internalType": "bool",
          "name": "isRegistered",
          "type": "bool"
        },
        {
          "internalType": "uint256",
          "name": "totalDonated",
          "type": "uint256"
        }
      ],
      "stateMutability": "view",
      "type": "function"
    },
    {
      "inputs": [
        {
          "internalType": "uint256",
          "name": "_campaignId",
          "type": "uint256"
        }
      ],
      "name": "getCampaign",
      "outputs": [
        {
          "internalType": "string",
          "name": "",
          "type": "string"
        },
        {
          "internalType": "uint256",
          "name": "",
          "type": "uint256"
        },
        {
          "internalType": "uint256",
          "name": "",
          "type": "uint256"
        },
        {
          "internalType": "bool",
          "name": "",
          "type": "bool"
        },
        {
          "internalType": "uint256",
          "name": "",
          "type": "uint256"
        }
      ],
      "stateMutability": "view",
      "type": "function"
    },
    {
      "inputs": [
        {
          "internalType": "address",
          "name": "_addr",
          "type": "address"
        }
      ],
      "name": "isDonorRegistered",
      "outputs": [
        {
          "internalType": "bool",
          "name": "",
          "type": "bool"
        }
      ],
      "stateMutability": "view",
      "type": "function"
    },
    {
      "inputs": [],
      "name": "register",
      "outputs": [],
      "stateMutability": "nonpayable",
      "type": "function"
    },
    {
      "inputs": [
        {
          "internalType": "uint256",
          "name": "_campaignId",
          "type": "uint256"
        }
      ],
      "name": "withdrawFunds",
      "outputs": [],
      "stateMutability": "nonpayable",
      "type": "function"
    }
  ],
  "bytecode": "0x6080604052348015600f57600080fd5b50336000806101000a81548173ffffffffffffffffffffffffffffffffffffffff021916908373ffffffffffffffffffffffffffffffffffffffff160217905550611ba88061005f6000396000f3fe6080604052600436106100915760003560e01c80635598f8cc116100595780635598f8cc1461017f5780637274e30d146101c0578063ca0cdea8146101eb578063f14faf6f14610229578063f851a4401461024557610091565b8063141961bc14610096578063155dd5ee146100d95780631aa3a00814610102578063213e899f146101195780633020580b14610156575b600080fd5b3480156100a257600080fd5b506100bd60048036038101906100b89190610de7565b610270565b6040516100d09796959493929190610f0f565b60405180910390f35b3480156100e557600080fd5b5061010060048036038101906100fb9190610de7565b610367565b005b34801561010e57600080fd5b5061011761059c565b005b34801561012557600080fd5b50610140600480360381019061013b9190610fc3565b6106b3565b60405161014d9190610ff0565b60405180910390f35b34801561016257600080fd5b5061017d60048036038101906101789190611140565b61070c565b005b34801561018b57600080fd5b506101a660048036038101906101a19190610de7565b6109c7565b6040516101b79594939291906111af565b60405180910390f35b3480156101cc57600080fd5b506101d5610aab565b6040516101e29190611209565b60405180910390f35b3480156101f757600080fd5b50610212600480360381019061020d9190610fc3565b610ab1565b604051610220929190611224565b60405180910390f35b610243600480360381019061023e9190610de7565b610ae2565b005b34801561025157600080fd5b5061025a610d79565b604051610267919061125c565b60405180910390f35b6002602052806000526040600020600091509050806000015490806001018054610299906112a6565b80601f01602080910402602001604051908101604052809291908181526020018280546102c5906112a6565b80156103125780601f106102e757610100808354040283529160200191610312565b820191906000526020600020905b8154815290600101906020018083116102f557829003601f168201915b5050505050908060020160009054906101000a900473ffffffffffffffffffffffffffffffffffffffff16908060030154908060040154908060050160009054906101000a900460ff16908060060154905087565b60008054906101000a900473ffffffffffffffffffffffffffffffffffffffff1673ffffffffffffffffffffffffffffffffffffffff163373ffffffffffffffffffffffffffffffffffffffff16146103f5576040517f08c379a00000000000000000000000000000000000000000000000000000000081526004016103ec90611323565b60405180910390fd5b6000600260008381526020019081526020016000209050600081600301548260040154101590506000826006015442101590508260050160009054906101000a900460ff16610479576040517f08c379a00000000000000000000000000000000000000000000000000000000081526004016104709061138f565b60405180910390fd5b81806104825750805b6104c1576040517f08c379a00000000000000000000000000000000000000000000000000000000081526004016104b890611421565b60405180910390fd5b6000836004015490506000846004018190555060008460050160006101000a81548160ff0219169083151502179055508360020160009054906101000a900473ffffffffffffffffffffffffffffffffffffffff1673ffffffffffffffffffffffffffffffffffffffff166108fc829081150290604051600060405180830381858888f1935050505015801561055b573d6000803e3d6000fd5b507f0c875c8d391179c5cf7ad8303d268efd50b8beb78b671f85cd54bfb91eb8ef40858260405161058d929190611441565b60405180910390a15050505050565b600360003373ffffffffffffffffffffffffffffffffffffffff1673ffffffffffffffffffffffffffffffffffffffff16815260200190815260200160002060000160009054906101000a900460ff161561062c576040517f08c379a0000000000000000000000000000000000000000000000000000000008152600401610623906114b6565b60405180910390fd5b60405180604001604052806001151581526020016000815250600360003373ffffffffffffffffffffffffffffffffffffffff1673ffffffffffffffffffffffffffffffffffffffff16815260200190815260200160002060008201518160000160006101000a81548160ff02191690831515021790555060208201518160010155905050565b6000600360008373ffffffffffffffffffffffffffffffffffffffff1673ffffffffffffffffffffffffffffffffffffffff16815260200190815260200160002060000160009054906101000a900460ff169050919050565b60008054906101000a900473ffffffffffffffffffffffffffffffffffffffff1673ffffffffffffffffffffffffffffffffffffffff163373ffffffffffffffffffffffffffffffffffffffff161461079a576040517f08c379a000000000000000000000000000000000000000000000000000000000815260040161079190611323565b60405180910390fd5b600082116107dd576040517f08c379a00000000000000000000000000000000000000000000000000000000081526004016107d490611522565b60405180910390fd5b60008111610820576040517f08c379a00000000000000000000000000000000000000000000000000000000081526004016108179061158e565b60405180910390fd5b6000620151808261083191906115dd565b4261083c919061161f565b90506040518060e00160405280600154815260200185815260200160008054906101000a900473ffffffffffffffffffffffffffffffffffffffff1673ffffffffffffffffffffffffffffffffffffffff16815260200184815260200160008152602001600115158152602001828152506002600060015481526020019081526020016000206000820151816000015560208201518160010190816108e191906117ff565b5060408201518160020160006101000a81548173ffffffffffffffffffffffffffffffffffffffff021916908373ffffffffffffffffffffffffffffffffffffffff160217905550606082015181600301556080820151816004015560a08201518160050160006101000a81548160ff02191690831515021790555060c082015181600601559050507f02fe3fddd43aad14ae5c30d5d694f19ecb065dfde85bb591b91e8af1448724d26001548585846040516109a194939291906118d1565b60405180910390a1600160008154809291906109bc9061191d565b919050555050505050565b6060600080600080600060026000888152602001908152602001600020905080600101816003015482600401548360050160009054906101000a900460ff168460060154848054610a17906112a6565b80601f0160208091040260200160405190810160405280929190818152602001828054610a43906112a6565b8015610a905780601f10610a6557610100808354040283529160200191610a90565b820191906000526020600020905b815481529060010190602001808311610a7357829003601f168201915b50505050509450955095509550955095505091939590929450565b60015481565b60036020528060005260406000206000915090508060000160009054906101000a900460ff16908060010154905082565b60006611c37937e0800090506000670de0b6b3a76400009050600360003373ffffffffffffffffffffffffffffffffffffffff1673ffffffffffffffffffffffffffffffffffffffff16815260200190815260200160002060000160009054906101000a900460ff16610b8a576040517f08c379a0000000000000000000000000000000000000000000000000000000008152600401610b81906119b1565b60405180910390fd5b813410158015610b9a5750803411155b610bd9576040517f08c379a0000000000000000000000000000000000000000000000000000000008152600401610bd090611a43565b60405180910390fd5b60006002600085815260200190815260200160002090508060050160009054906101000a900460ff16610c41576040517f08c379a0000000000000000000000000000000000000000000000000000000008152600401610c3890611aaf565b60405180910390fd5b8060030154348260040154610c56919061161f565b1115610c97576040517f08c379a0000000000000000000000000000000000000000000000000000000008152600401610c8e90611b1b565b60405180910390fd5b34816004016000828254610cab919061161f565b9250508190555034600360003373ffffffffffffffffffffffffffffffffffffffff1673ffffffffffffffffffffffffffffffffffffffff1681526020019081526020016000206001016000828254610d04919061161f565b925050819055508060030154816004015410610d385760008160050160006101000a81548160ff0219169083151502179055505b7f4928895ba6723e8e27b15f32e4c3054a1b6c7f8c03f133558d6fa42b3928d14c338534604051610d6b93929190611b3b565b60405180910390a150505050565b60008054906101000a900473ffffffffffffffffffffffffffffffffffffffff1681565b6000604051905090565b600080fd5b600080fd5b6000819050919050565b610dc481610db1565b8114610dcf57600080fd5b50565b600081359050610de181610dbb565b92915050565b600060208284031215610dfd57610dfc610da7565b5b6000610e0b84828501610dd2565b91505092915050565b610e1d81610db1565b82525050565b600081519050919050565b600082825260208201905092915050565b60005b83811015610e5d578082015181840152602081019050610e42565b60008484015250505050565b6000601f19601f8301169050919050565b6000610e8582610e23565b610e8f8185610e2e565b9350610e9f818560208601610e3f565b610ea881610e69565b840191505092915050565b600073ffffffffffffffffffffffffffffffffffffffff82169050919050565b6000610ede82610eb3565b9050919050565b610eee81610ed3565b82525050565b60008115159050919050565b610f0981610ef4565b82525050565b600060e082019050610f24600083018a610e14565b8181036020830152610f368189610e7a565b9050610f456040830188610ee5565b610f526060830187610e14565b610f5f6080830186610e14565b610f6c60a0830185610f00565b610f7960c0830184610e14565b98975050505050505050565b6000610f9082610eb3565b9050919050565b610fa081610f85565b8114610fab57600080fd5b50565b600081359050610fbd81610f97565b92915050565b600060208284031215610fd957610fd8610da7565b5b6000610fe784828501610fae565b91505092915050565b60006020820190506110056000830184610f00565b92915050565b600080fd5b600080fd5b7f4e487b7100000000000000000000000000000000000000000000000000000000600052604160045260246000fd5b61104d82610e69565b810181811067ffffffffffffffff8211171561106c5761106b611015565b5b80604052505050565b600061107f610d9d565b905061108b8282611044565b919050565b600067ffffffffffffffff8211156110ab576110aa611015565b5b6110b482610e69565b9050602081019050919050565b82818337600083830152505050565b60006110e36110de84611090565b611075565b9050828152602081018484840111156110ff576110fe611010565b5b61110a8482856110c1565b509392505050565b600082601f8301126111275761112661100b565b5b81356111378482602086016110d0565b91505092915050565b60008060006060848603121561115957611158610da7565b5b600084013567ffffffffffffffff81111561117757611176610dac565b5b61118386828701611112565b935050602061119486828701610dd2565b92505060406111a586828701610dd2565b9150509250925092565b600060a08201905081810360008301526111c98188610e7a565b90506111d86020830187610e14565b6111e56040830186610e14565b6111f26060830185610f00565b6111ff6080830184610e14565b9695505050505050565b600060208201905061121e6000830184610e14565b92915050565b60006040820190506112396000830185610f00565b6112466020830184610e14565b9392505050565b61125681610f85565b82525050565b6000602082019050611271600083018461124d565b92915050565b7f4e487b7100000000000000000000000000000000000000000000000000000000600052602260045260246000fd5b600060028204905060018216806112be57607f821691505b6020821081036112d1576112d0611277565b5b50919050565b7f4f6e6c792061646d696e20616c6c6f7765640000000000000000000000000000600082015250565b600061130d601283610e2e565b9150611318826112d7565b602082019050919050565b6000602082019050818103600083015261133c81611300565b9050919050565b7f43616d706169676e20696e616374697665000000000000000000000000000000600082015250565b6000611379601183610e2e565b915061138482611343565b602082019050919050565b600060208201905081810360008301526113a88161136c565b9050919050565b7f476f616c206e6f74207265616368656420616e6420646561646c696e65206e6f60008201527f7420706173736564000000000000000000000000000000000000000000000000602082015250565b600061140b602883610e2e565b9150611416826113af565b604082019050919050565b6000602082019050818103600083015261143a816113fe565b9050919050565b60006040820190506114566000830185610e14565b6114636020830184610e14565b9392505050565b7f416c726561647920726567697374657265640000000000000000000000000000600082015250565b60006114a0601283610e2e565b91506114ab8261146a565b602082019050919050565b600060208201905081810360008301526114cf81611493565b9050919050565b7f476f616c206d757374206265206d6f7265207468616e20300000000000000000600082015250565b600061150c601883610e2e565b9150611517826114d6565b602082019050919050565b6000602082019050818103600083015261153b816114ff565b9050919050565b7f43616d706169676e206d75737420686176652061206475726174696f6e000000600082015250565b6000611578601d83610e2e565b915061158382611542565b602082019050919050565b600060208201905081810360008301526115a78161156b565b9050919050565b7f4e487b7100000000000000000000000000000000000000000000000000000000600052601160045260246000fd5b60006115e882610db1565b91506115f383610db1565b925082820261160181610db1565b91508282048414831517611618576116176115ae565b5b5092915050565b600061162a82610db1565b915061163583610db1565b925082820190508082111561164d5761164c6115ae565b5b92915050565b60008190508160005260206000209050919050565b60006020601f8301049050919050565b600082821b905092915050565b6000600883026116b57fffffffffffffffffffffffffffffffffffffffffffffffffffffffffffffffff82611678565b6116bf8683611678565b95508019841693508086168417925050509392505050565b6000819050919050565b60006116fc6116f76116f284610db1565b6116d7565b610db1565b9050919050565b6000819050919050565b611716836116e1565b61172a61172282611703565b848454611685565b825550505050565b600090565b61173f611732565b61174a81848461170d565b505050565b5b8181101561176e57611763600082611737565b600181019050611750565b5050565b601f8211156117b35761178481611653565b61178d84611668565b8101602085101561179c578190505b6117b06117a885611668565b83018261174f565b50505b505050565b600082821c905092915050565b60006117d6600019846008026117b8565b1980831691505092915050565b60006117ef83836117c5565b9150826002028217905092915050565b61180882610e23565b67ffffffffffffffff81111561182157611820611015565b5b61182b82546112a6565b611836828285611772565b600060209050601f8311600181146118695760008415611857578287015190505b61186185826117e3565b8655506118c9565b601f19841661187786611653565b60005b8281101561189f5784890151825560018201915060208501945060208101905061187a565b868310156118bc57848901516118b8601f8916826117c5565b8355505b6001600288020188555050505b505050505050565b60006080820190506118e66000830187610e14565b81810360208301526118f88186610e7a565b90506119076040830185610e14565b6119146060830184610e14565b95945050505050565b600061192882610db1565b91507fffffffffffffffffffffffffffffffffffffffffffffffffffffffffffffffff820361195a576119596115ae565b5b600182019050919050565b7f446f6e6f72206e6f742072656769737465726564000000000000000000000000600082015250565b600061199b601483610e2e565b91506119a682611965565b602082019050919050565b600060208201905081810360008301526119ca8161198e565b9050919050565b7f446f6e6174696f6e206d757374206265206265747765656e20524d3520616e6460008201527f20524d3130303020696e20776569000000000000000000000000000000000000602082015250565b6000611a2d602e83610e2e565b9150611a38826119d1565b604082019050919050565b60006020820190508181036000830152611a5c81611a20565b9050919050565b7f43616d706169676e206e6f742061637469766500000000000000000000000000600082015250565b6000611a99601383610e2e565b9150611aa482611a63565b602082019050919050565b60006020820190508181036000830152611ac881611a8c565b9050919050565b7f5461726765742072656163686564000000000000000000000000000000000000600082015250565b6000611b05600e83610e2e565b9150611b1082611acf565b602082019050919050565b60006020820190508181036000830152611b3481611af8565b9050919050565b6000606082019050611b50600083018661124d565b611b5d6020830185610e14565b611b6a6040830184610e14565b94935050505056fea26469706673582212200902a44ac626409413cb445521e5aec24ae5b8a29b84303f9729b2e219d4fd2c64736f6c634300081c0033",
  "linkReferences": {},
  "deployedLinkReferences": {}
}